:020000040800F2
:1000000024860020413E00089D3E00089D3E0008D9
:100010009D3E00089D3E00089D3E00080000000037
:100020000000000000000000000000009D3E0008ED
:100030009D3E0008000000009D3E0008810200086F
:100040009D3E00089D3E00089D3E00089D3E000824
:100050009D3E00089D3E00089D3E00089D3E000814
:100060009D3E00089D3E00089D3E00089D3E000804
:100070009D3E00089D3E00089D3E00089D3E0008F4
:100080009D3E00089D3E00089D3E00089D3E0008E4
:100090009D3E00089D3E00089D3E00089D3E0008D4
:1000A0009D3E00089D3E00089D3E00089D3E0008C4
:1000B0009D3E00089D3E00089D3E00089D3E0008B4
:1000C0009D3E00089D3E00089D3E00089D3E0008A4
:1000D0009D3E00089D3E00089D3E00089D3E000894
:1000E0009D0200089D3E00089D3E00089D3E0008C0
:1000F0009D3E00089D3E00089D3E00089D3E000874
:100100009D3E00089D3E00089D3E00089D3E000863
:100110009D3E00089D3E00089D3E00089D3E000853
:100120009D3E00089D3E00089D3E00089D3E000843
:100130009D3E00089D3E00089D3E00089D3E000833
:100140009D3E00089D3E00089D3E00089D3E000823
:100150009D3E00089D3E00089D3E00089D3E000813
:100160009D3E00089D3E00089D3E00089D3E000803
:100170009D3E00089D3E00089D3E00089D3E0008F3
:100180009D3E00089D3E000890B484B000AF02463A
:100190000B46FA71BB710023FB60BB7903F00303CC
:1001A0009B000F2202FA03F3FB60154BBA79920809
:1001B000D2B21349B8798008C0B2023051F8200099
:1001C000F968C9430140023243F822100C4BBA7956
:1001D0009208D2B20A49B8798008C0B2023051F808
:1001E0002000FC79B97901F00301890004FA01F1DA
:1001F0000143023243F822101037BD4690BC7047CD
:100200000038014080B483B000AF7860034B7A6857
:100210001A600C37BD465DF8047B7047DC0027424E
:1002200080B582B000AF0023FB7100233B6005F076
:1002300077F938603B68012B01D10123FB713B68E2
:10024000022B01D10223FB7104F022FF07F0B8FB5F
:10025000FB7918460837BD4680BD00BF80B500AFAA
:1002600004F01EFB0346002B01D004F049FF034BB2
:100270001B68184604F04CFF80BD00BFB80000208A
:1002800080B400AF044B1B6803F10A02024B1A60F2
:10029000BD465DF8047B7047B800002080B500AF14
:1002A0004FF4804009F004F90346002B06D00120EA
:1002B00005F0CCFA4FF4804009F01EF980BD00BF74
:1002C00080B485B000AF7860294B1A687B681B88C2
:1002D0001344FB607A68FB689A421FD0FB681B7965
:1002E000002B1BD1234B1B68FA689A4216D0224B75
:1002F0001A68FB689A4202D11F4B7A681A60FB6841
:100300001A887B681A801A4B1A68FB681B8813448A
:100310007968174A12688A1A92B25A80144B1A687E
:100320007B685B881344BB60BA687B689A421AD0CA
:10033000BB681B79002B16D10F4B1A687B689A4259
:1003400002D10D4BBA681A607B681A88BB681A80A4
:10035000074B1A687B681B881344B968044A126803
:100360008A1A92B25A801437BD465DF8047B7047F2
:10037000D0280020D4280020D828002080B483B0C2
:1003800000AF1A4B033323F003031A46184B1A60CD
:10039000174B1B687B607B684FF420521A807B6888
:1003A00000225A807B6800221A71114B1B6803F5EA
:1003B0002052104B1A600F4B1B6801221A710D4B13
:1003C0001B684FF420521A800A4B1B684FF42052CE
:1003D0005A80094B01221A70054B1A68074B1A60A4
:1003E0000C37BD465DF8047B704700BFBC000020A1
:1003F000D0280020D4280020DC280020D828002085
:1004000080B584B000AF78607B68002B00D11FE01E
:10041000114B1B687A689A420F4B1B687A689A42A4
:1004200004D30E4B1B687A689A4200D310E07B68B5
:10043000083BFB60FB6800221A71094B1B68FA68D5
:100440009A4202D2064BFA681A60F868FFF738FF42
:100450001037BD4680BD00BFD0280020D428002022
:10046000D828002080B487B000AF78600B467B802E
:100470007B8803339BB223F003037B807B880B2BA9
:1004800001D80C237B807B88B3F5205F01D9002342
:100490009AE0504B1B687A689A424E4B1B687A6808
:1004A0009A4204D34C4B1B687A689A4201D37B680A
:1004B0008AE07B68083B7B617A69464B1B68D31AEC
:1004C0007B827B691A887B8AD31A9BB2083B3B826A
:1004D0007A883B8A9A4201D9002375E07A883B8A60
:1004E0009A4201D17B686FE03A4B1A687B691B889E
:1004F0001344FB60FB681B79002B32D1FB681B881F
:100500007B817A8A7B8813449BB208333B81334BCF
:100510001A68FB689A4205D12E4B1A683B891A4427
:100520002E4B1A602B4B1A683B891344FB60FB6807
:1005300000221A71FB687A891A80FB687A8A5A80CD
:100540007B693A891A80FB681B88B3F5205F07D066
:10055000204B1A68FB681B8813443A895A8032E0A2
:1005600031E07B8803F114023B8A9A422BD87A8AC5
:100570007B8813449BB208333B81164B1A683B8936
:100580001344FB60154B1B68FA689A4202D2134B66
:10059000FA681A60FB6800221A717B691A88FB6886
:1005A0001A80FB687A8A5A807B693A891A80FB68CC
:1005B0001B88B3F5205F06D0064B1A68FB681B88C2
:1005C00013443A895A807B6818461C37BD465DF84B
:1005D000047B7047D0280020D4280020D828002091
:1005E00080B487B000AF0346FB80FB88002B01D1AD
:1005F00000238FE0FB8803339BB223F00303FB80CF
:10060000FB880B2B01D80C23FB80FB88B3F5205F04
:1006100001D900237EE0424B1B681A46414B1B6800
:10062000D31AFB826FE03F4B1A68FB8A13443B618D
:100630003B691B79002B60D13B691B881A46FB8AFA
:10064000D31AA3F10802FB889A4256D33B691B8850
:100650001A46FB8AD31AA3F10802FB8814339A4284
:1006600027D3FA8AFB8813449BB20833FB812D4BB6
:100670001A68FB891344BB60BB6800221A713B698E
:100680001A88BB681A80BB68FA8A5A803B69FA8963
:100690001A803B6901221A71BB681B88B3F5205F81
:1006A0000AD0204B1A68BB681B881344FA895A8009
:1006B00002E03B6901221A71194B1B683A699A42A0
:1006C00018D107E0174B1A68154B1B681B881A4492
:1006D000134B1A60124B1B681B79002B05D0104B73
:1006E0001A68114B1B689A42ECD10D4B1A680E4BDD
:1006F0001B689A423B6908330CE00A4B1A68FB8A74
:1007000013441B88FB82FA8AFB88C3F520539A4264
:1007100089DB002318461C37BD465DF8047B704713
:10072000D8280020D0280020D428002080B500AF91
:1007300000F030FD074B1B780133DAB2054B1A701D
:10074000044B1B7803F00103002B01D000F040FBA9
:1007500080BD00BFE028002080B584B000AF786085
:100760007B681B7C072B00F28B8001A252F823F0E0
:1007700091070008F30700080D0800082708000883
:10078000450800088108000881080008630800087F
:100790000023FB73454B1A687B689A4205D1434B93
:1007A0001B68DA68414B1A6019E0404B1A68404BED
:1007B0001A6010E03E4B1B68DA687B689A4205D1EC
:1007C0003B4B1B687A68D268DA6008E0384B1B68DC
:1007D000DA68374B1A60364B1B68002BEAD17B680E
:1007E0000022DA600220796802F078FC00237B6046
:1007F0004BE00023FB732F48796800F017FF0320BC
:10080000796802F06BFC00237B603EE00023FB7301
:100810002948796800F00AFF0220796802F05EFC3E
:1008200000237B6031E07868012109F035FB034645
:10083000FB7397F90F30002B03D17B6805221A74E4
:1008400023E022E07868012109F026FB0346FB73D0
:1008500097F90F30002B03D17B6805221A7414E03E
:1008600013E07868012109F017FB0346FB7397F941
:100870000F30002B03D17B6809221A7405E004E0D5
:100880000023FB7300237B6000BF7B68002B06D036
:1008900097F90F30002B02D1786809F04BFEFB7BF3
:1008A0005BB218461037BD4680BD00BF40580020DF
:1008B0003C580020385800203058002080B58CB0BB
:1008C00002AF786039607B681B7C0A2B08D1304806
:1008D000796800F0ABFE0220796802F0FFFB54E07B
:1008E0007B689B6D7B627B685B6A3B627B68002BED
:1008F00002D07B681B6800E00023FB607B68043348
:10090000002B02D07B685B6800E000233B617B68C2
:100910001B8BFB837B681B8CBB837B68D3F890307D
:10092000BB617B685B697B611A48796800F07EFE79
:100930007B689B6F002B04D07B689B6F184600F090
:1009400081FC7B685B6F002B04D07B685B6F184673
:1009500000F078FC0220796802F0C0FBBB69002B34
:1009600004D0BB6978696FF0040198473B68002B9D
:100970000BD007F10C0207F11003F98B0091B98B32
:100980000191786A396A09F0DFFF2837BD4680BDDA
:10099000445800203058002080B586B000AFF86081
:1009A000B9601346FB80FB681B7C002B01D0F3234E
:1009B000A2E0FB88002B03D100F0B4F90346FB80D2
:1009C000504B1B687B611DE07B691B8BFA889A4248
:1009D00015D17B69002B10D07B691B68002B0CD0D4
:1009E000BB68002B09D0BB681B68002B05D07B6956
:1009F0001A68BB681B689A4201D1F5237CE07B69C9
:100A0000DB687B617B69002BDED13F4B1B687B6120
:100A10001DE07B691B8BFA889A4215D17B69002BFC
:100A200010D07B691B68002B0CD0BB68002B09D051
:100A3000BB681B68002B05D07B691A68BB681B6804
:100A40009A4201D1F52357E07B69DB687B617B69C2
:100A5000002BDED12D4B1B687B611DE07B691B8B5E
:100A6000FA889A4215D17B69002B10D07B691B68EC
:100A7000002B0CD0BB68002B09D0BB681B68002B77
:100A800005D07B691A68BB681B689A4201D1F523BF
:100A900032E07B69DB687B617B69002BDED11C4B1C
:100AA0001B687B610FE07B691B8BFA889A4207D138
:100AB0007B691A68BB681B689A4201D1F5231BE069
:100AC0007B69DB687B617B69002BECD1BB68002B09
:100AD00007D0BB681B68002B03D0FB68BA6810689E
:100AE0001860FB68FA881A83084B1A68FB68DA609A
:100AF000064BFA681A6000235BB218461837BD46E9
:100B000080BD00BF385800203058002040580020D9
:100B10004458002080B485B000AFF860B960134637
:100B2000FB71FB235BB218461437BD465DF8047BAE
:100B3000704700BF80B584B000AF78600B46FB7093
:100B40007B681B7C002B01D000236CE07B681B7C46
:100B5000012B01D17B6866E0032002F09DFAF8606A
:100B6000FB68002B01D100235DE07B685A69FB68BC
:100B70005A617B681A8BFB681A83FB6801221A741E
:100B80007B681A89FB681A81FB681B8943F00203A2
:100B90009AB2FB681A817B68DA7AFB68DA727B6842
:100BA0009A7AFB689A727B68002B02D07B681B687C
:100BB00000E00023FA6813601D4B1A687B689A42B4
:100BC00005D11B4B1B68DA68194B1A6019E0184BEA
:100BD0001A68184B1A6010E0164B1B68DA687B68BD
:100BE0009A4205D1134B1B687A68D268DA6008E034
:100BF000104B1B68DA680F4B1A600E4B1B68002BFA
:100C0000EAD17B680022DA600220796802F066FA95
:100C1000FB68094ADA61094B1A68FB68DA60074B1E
:100C2000FA681A60FB6818461037BD4680BD00BFE1
:100C3000405800203C580020150B00083858002070
:100C400080B485B000AF78607B685A6A7B681B8D82
:100C50001344FB607B68DA6A7B68198F40F2B453F7
:100C6000994202D87B681B8F01E040F2B4531344D1
:100C7000FA68D31A002B08DB7B681A8D7B685A85CB
:100C80007B68DB6AFA68D31A15E07B685A6A7B686E
:100C9000DB6AD31A002B03DD7B6800225A8509E04A
:100CA0007B68DB6A9AB27B685B6A9BB2D31A9AB2A2
:100CB0007B685A85002318461437BD465DF8047BCF
:100CC000704700BF80B584B000AF78600B467B8072
:100CD0007B681A8D7B8813449AB27B681A857B687F
:100CE0001A8D40F668339A4203D97B6840F6683221
:100CF0001A857868FFF7A4FF0346FB60FA6840F2A4
:100D0000D9239A420BDD7B6893F8223043F002032B
:100D1000DAB27B6883F82220786809F00BFC103780
:100D2000BD4680BD80B483B000AF254B1B88013326
:100D30009AB2234B1A80224B1B889BB21BB2002B0A
:100D400003DA1F4B4FF480521A801E4B1B687B60E6
:100D500009E07B681A8B1A4B1B889A4200D1E4E7A2
:100D60007B68DB687B607B68002BF2D1164B1B68CD
:100D70007B6009E07B681A8B114B1B889A4200D17B
:100D8000D3E77B68DB687B607B68002BF2D10F4B7D
:100D90001B687B6009E07B681A8B094B1B889A42B1
:100DA00000D1C2E77B68DB687B607B68002BF2D1F7
:100DB000034B1B8818460C37BD465DF8047B704713
:100DC0002C000020305800204458002038580020C3
:100DD000B0B588B002AF00237B73964B1B685A1CDA
:100DE000944B1A6000233B61934B1B687B618DE140
:100DF0000023FB730023BB737B691B7C022B08D190
:100E00007B6993F84A30062B03D1FB7B0133FB73DC
:100E100090E07B6993F84A300C2B03D1FB7B0133C4
:100E2000FB7387E07B6993F89C30002B26D07B69AD
:100E3000D3F898305A1C7B69C3F898207B69D3F8A3
:100E400098207B6993F89C30013B7C49CB5C9A42AB
:100E500070D37B690022C3F898207B6993F89C309B
:100E6000062B07D87B6993F89C300133DAB27B6993
:100E700083F89C20786909F0C7FE5BE07B69DB8E14
:100E80001BB2002B05DB7B69DB8E01339AB27B69D9
:100E9000DA867B699B6F002B4CD07B69DA8E7B698D
:100EA000B3F8483012B21BB29A4243DB7B691B7C19
:100EB000022B16D07B69B3F844301BB2DB109BB217
:100EC0001AB27B69B3F846301BB21A447B6993F8B7
:100ED0004A305B49CB5C02FA03F39AB27B69A3F810
:100EE00048207B690022DA867B69B3F85C207B6945
:100EF000B3F852309A4238BF13467B817B895B0836
:100F00009AB27B69A3F854207B69B3F854207B69BB
:100F10001B8F9A4206D27B691B8F5B009AB27B695A
:100F2000A3F854207B691A8F7B69A3F85220786953
:100F300009F082FD7B691B7C062B09D13D4B1A68A9
:100F40007B691B6BD31A282B02D9FB7B0133FB7304
:100F50007B691B8903F00803002B40D07B691B7C55
:100F6000042B03D07B691B7C072B38D1314B1A68CB
:100F70007B691B6BD21A7B69D3F8943003F5242369
:100F800003F6B8432F49A1FB03035B099A4206D934
:100F9000FB7B0133FB73BB7B0133BB731FE0254B32
:100FA0001A687B691B6BD21A7B69D3F894107B6932
:100FB00093F89D30244800FB03F31944214BA3FB15
:100FC00001035B099A420AD9786909F0FDFD7B6942
:100FD00093F89D300133DAB27B6983F89D207B69F9
:100FE0001B7C032B09D1134B1A687B691B6BD31A2B
:100FF000282B02D9FB7B0133FB737B691B7C092BFC
:1010000009D10C4B1A687B691B6BD31AF02B02D9E0
:10101000FB7B0133FB73FB7B002B45D0786900F031
:10102000D5FA3B69002B11D07B69DA683B69DA603D
:1010300010E000BF34580020305800207CC1000868
:101040006CC10008D34D6210F82401007B69DA6896
:101050004D4B1A607B69D3F89030002B08D07B6928
:10106000D3F890307A69526910466FF004019847BE
:10107000BB7B002B0ED07B69986D7B69596A7A69BE
:101080007B6904337C69258B7C69248C00950194F1
:1010900009F05AFC7B69DB687B600220796902F009
:1010A0001DF87B687B6131E07B6993F83430013354
:1010B000DAB27B6983F834207B6993F834207B694A
:1010C00093F835309A421CD37B69002283F8342090
:1010D0007B69D3F88C30002B0AD07B69D3F88C3035
:1010E0007A69526910467969984703467B7301E033
:1010F00000237B7397F90D30002B02D1786909F03A
:1011000019FA7B693B617B69DB687B617B69002B3A
:101110007FF46EAE00233B611C4B1B687B612CE0AF
:101120000023FB731A4B1A687B691B6BD31AF02BD5
:1011300002D9FB7B0133FB73FB7B002B18D0786952
:1011400000F044FA3B69002B04D07B69DA683B6904
:10115000DA6003E07B69DA680C4B1A607B69DB6854
:101160007B600220796901F0B9FF7B687B6104E054
:101170007B693B617B69DB687B617B69002BCFD13D
:101180001837BD46B0BD00BF30580020445800207D
:101190003458002090B583B000AF294B1B687B60AA
:1011A00047E07B68DB6F002B24D07B68D3F884306A
:1011B000002B0ED07B68D3F884407B685A697B682B
:1011C000DB6F104679681A460023A0470346FB7080
:1011D00009E07B68DB6F002079681A46002300F085
:1011E00079F80346FB7097F90330002B02D17B6836
:1011F0000022DA677B6893F8223003F00103002BAA
:1012000014D07B6893F8223043F00203DAB27B6893
:1012100083F82220786809F08DF97B6893F82230F2
:1012200023F00303DAB27B6883F822207B68DB6853
:101230007B607B68002BB4D10C37BD4690BD00BFEE
:101240003058002080B584B000AF78600023FB7375
:101250000CE07B681B68BB60786800F00FF8034601
:101260001A46FB7B1344FB73BB687B607B68002BD7
:10127000EFD1FB7B18461037BD4680BD80B584B0EA
:1012800000AF78600023FB737B68002B0ED07B6877
:101290005B68002B06D07B685B68184606F064FF2D
:1012A0000346FB730420796801F018FFFB7B1846A6
:1012B0001037BD4680BD00BF80B483B000AF7860FA
:1012C0000B46FB707B68FA785A740C37BD465DF8A4
:1012D000047B704780B584B000AFF860B9607A6075
:1012E000FB707B68002B09D07B681B89B8681946A6
:1012F000FFF7E8FC786806F037FF08E097F903305D
:10130000002B04D1B868FFF727FA034600E000235A
:101310005BB218461037BD4680BD00BF80B586B0B1
:1013200000AF0346FB717F23FB720023FB600023A9
:101330003B61184B1B687B611FE07B695B7CFA7922
:101340009A4217D37B695B7CFA7A9A4212D3124B8A
:101350001A687B691B6BD21AFB689A420AD30E4B40
:101360001A687B691B6BD31AFB607B693B617B69E5
:101370005B7CFB727B69DB687B617B69002BDCD16A
:101380003B69002B03D038690121FFF797FA183722
:10139000BD4680BD305800203458002080B584B050
:1013A00000AF00237B600023BB60124B1B68FB6017
:1013B00012E0114B1A68FB681B6BD21A7B689A42C9
:1013C00007D30D4B1A68FB681B6BD31A7B60FB6855
:1013D000BB60FB68DB68FB60FB68002BE9D1BB6886
:1013E000002B03D0B8680121FFF768FA1037BD461B
:1013F00080BD00BF445800203458002080B584B020
:1014000000AF0346FB71022001F046FEF860FB6866
:10141000002B10D1FFF7C2FF022001F03DFEF86063
:10142000FB68002B07D1FB791846FFF777FF0220F6
:1014300001F032FEF860FB68002B59D0F8680021FB
:10144000A0220AF05FF9FB6840225A74FB6841F25F
:10145000D062A3F86E20FB680022A3F87020FB681E
:1014600040F668321A85FB6840F668325A85FB6898
:1014700000229A72FB68FF22DA72FB684FF4067250
:101480001A87FB680622A3F84820FB680022A3F80D
:101490004420FB680622A3F84620FB684FF6FF7243
:1014A000DA86FB680122A3F8522000F015F9B86033
:1014B000FB68BA685A66FB68BA689A65FB68BA68DE
:1014C000DA64FB68BA689A660C4B1A68FB681A63A0
:1014D000FB68002283F83420FB68094AC3F88420A3
:1014E000FB68084AC3F89420FB68002283F89D201B
:1014F000FB6818461037BD4680BD00BF3458002039
:10150000D512000800DD6D0080B500AF4020FFF768
:1015100075FF0346184680BD80B483B000AF786085
:1015200039607B683A685A610C37BD465DF8047BC8
:10153000704700BF80B483B000AF786039607B68CB
:101540003A68C3F884200C37BD465DF8047B7047C9
:1015500080B483B000AF786039607B683A68C3F8C4
:1015600080200C37BD465DF8047B704780B483B0A3
:1015700000AF786039607B683A68C3F890200C3718
:10158000BD465DF8047B704780B483B000AF7860DF
:1015900039607B683A68DA610C37BD465DF8047BD8
:1015A000704700BF80B485B000AFF860B9601346E3
:1015B000FB71FB68BA68C3F88C20FB68FA7983F882
:1015C00035201437BD465DF8047B704780B582B086
:1015D00000AF78607B681B7C002B24D07B681B7C71
:1015E0000A2B20D07B681B7C012B1CD07B68DB6F17
:1015F000002B07D07B68DB6F184606F0B5FD7B68D3
:101600000022DA677B685B6F1846FFF71BFE7B687A
:101610009B6F1846FFF716FE7B6800225A677B68AF
:101620005A6F7B689A670837BD4680BD80B582B027
:1016300000AF786039607B681A683B689A4205D1D0
:101640007B681B68DA687B681A6019E07B681A6837
:10165000204B1A6010E01F4B1B68DA683B689A4207
:1016600005D11C4B1B683A68D268DA6008E0194B58
:101670001B68DA68174B1A60164B1B68002BEAD1FF
:101680003B680022DA603868FFF7A0FF3B681B7CEC
:101690000A2B16D03B681B7C012B12D03B6893F8B9
:1016A000223003F00103002B0BD03B6893F822306B
:1016B00043F00203DAB23B6883F82220386808F06E
:1016C00039FF3B681B7C012B3B6800221A740837EA
:1016D000BD4680BD3C58002080B400AF064B1A6860
:1016E000064B1B681A44044B1A60034B1B681846D0
:1016F000BD465DF8047B7047300000203458002060
:1017000080B584B000AF03463960FB80386807F0CD
:10171000FFFBF860FB68002B0DD0FB681B8D002BD6
:1017200009D0FB681B8D283B7B817A89FB889A4214
:1017300038BF1346FB80FB8818461037BD4680BD76
:10174000B0B588B002AF786039607B685A68994B51
:101750001A607B685C68974B1B681B889BB21846B5
:1017600006F0B2FE03461B0A9BB203F00F039B0078
:10177000E218914B1A608F4B1B681B889BB218466E
:1017800006F0A2FE03461B0A9BB203F00F039BB2B6
:101790009B009BB25B429BB29BB21BB2786819461E
:1017A00006F072FC0346002B03D17B681B89132BC8
:1017B00003D8786806F0D8FC96E27E4B1B6810339D
:1017C0001846396803F060FA0346002B0FD1794BB5
:1017D0001B681C694FF0704006F09EFE03461C40DB
:1017E0004FF0604006F098FE03469C4203D17868B3
:1017F00006F0BAFC78E2704B1B689B899BB21846D6
:1018000006F062FE03461B0B9BB2BB72BB7A9BB217
:101810001A469203D31A9B009BB29BB21BB2786804
:10182000194606F031FC0346002B03D0786806F019
:101830009BFC59E2604B1C685F4B1B681B889BB28A
:10184000184606F041FE034623805B4B1C685A4B4A
:101850001B685B889BB2184606F036FE0346638021
:10186000554B1C68544B1B685B68184606F054FEC9
:10187000034663606268514B1A604F4B1C684E4BC5
:101880001B689B68184606F047FE0346A360A268E3
:101890004B4B1A60484B1C68474B1B68DB899BB25B
:1018A000184606F011FE0346E381434B1B689B89F3
:1018B0009BB2184606F008FE0346DBB203F03F0376
:1018C000DAB2404B1A707B681A893E4B1B7803F0E2
:1018D0000303002B0CBF00230123DBB213449AB295
:1018E000394B1A8000233B61384B1B687B6132E027
:1018F0007B691A8C304B1B681B889BB29A4225D19E
:101900007B691A8B2C4B1B685B889BB29A421DD15A
:101910007B695A68274B1B68DB689A4216D17B6942
:101920001A68244B1B681B699A420FD13B69002B34
:101930000BD07B69DA683B69DA60244B1A687B69F3
:10194000DA60224B7A691A6008E007E07B693B6144
:101950007B69DB687B617B69002BC9D17B69002BCC
:1019600077D11B4B1B687B6137E07B691A8C124B6C
:101970001B681B889BB29A422CD17B691A8B0E4B39
:101980001B685B889BB29A4224D17B695A68094BD9
:101990001B68DB689A421DD17B691A68054B1B687E
:1019A0001B699A4216D1786900F07EFA786806F0D1
:1019B000DBFB99E1FC280020F8280020002900200A
:1019C00004290020082900200A290020305800207E
:1019D000445800207B69DB687B617B69002BC4D1A4
:1019E00000233B61934B1B68FB602FE0FB68002BDF
:1019F0000AD0FB681B68002B06D0FB681A688E4B68
:101A00001B681B699A421CD1FB681A8B8B4B1B68A5
:101A10005B889BB29A4214D13B69002B0AD0FB68C9
:101A2000DA683B69DA60834B1A68FB68DA60814BDD
:101A3000FA681A60F86800F069F9786806F094FBB3
:101A400052E1FB683B61FB68DB68FB60FB68002BD5
:101A5000CCD17B69002B00F01D81794B00221A60EC
:101A60007B681A89764B9A817B685A68744B9A60B6
:101A7000734B7A685A60714B1A68714B1A61714BDB
:101A800000221A60704B00221A707B69DB6F002BFA
:101A900029D07B69D3F88430002B0ED07B69D3F832
:101AA00084407B695A697B69DB6F104679691A4605
:101AB0000023A0470346FB7209E07B69DB6F00202F
:101AC00079691A460023FFF705FC0346FB7297F974
:101AD0000B30002B03D17B690022DA6703E07868C2
:101AE00006F042FB00E1594B7A691A60786900F010
:101AF0004BFA0346FB7297F90B3013F1050F00F018
:101B0000B980514B1B7803F00803002B16D07B697A
:101B1000D3F89030002B08D07B69D3F890307A69E5
:101B2000526910466FF00501984749487969FFF7F7
:101B30007DFD0220796901F0D1FA9BE0424B1B78D0
:101B400003F01003002B08D041487969FFF76EFDC0
:101B50000220796901F0C2FA8CE00023FB727B69F4
:101B6000B3F86C30002B14D07B69D3F88030002B95
:101B70000DD07B69D3F880307A6951697A69B2F8FF
:101B80006C200846796998470346FB7201E0002300
:101B9000FB722C4B1B68002B34D02E4B1B7803F0B0
:101BA0000803002B08D0274B1B68264A1268527B7B
:101BB00042F00102D2B25A737B69D3F88430002B11
:101BC0000ED07B69D3F884407B695A691D4B1B6832
:101BD000104679691A460023A0470346FB7209E0C4
:101BE000184B1B68002079691A460023FFF772FB27
:101BF0000346FB7297F90B30002B03D0114B1A6888
:101C00007B69DA67104B1B7803F02003002B2BD085
:101C10007B69D3F88430002B1ED07B69D3F88440D5
:101C20007B695B691846796900220023A047034657
:101C3000FB7219E038580020FC280020F82800200A
:101C4000E4280020102900200C29002048580020FA
:101C50003058002008290020002079690022002344
:101C6000FFF738FB0346FB72214B00221A607869AC
:101C700008F060FC1E4B00221A601E4B5B68002BB4
:101C800032D01C4B5B68184606F06EFA194B0022E6
:101C90005A6029E0184B1B689B899BB2184606F0D6
:101CA00013FC034603F00403002B1AD1134B1868EE
:101CB000134B1B881A46134B1B68D118124B1B6819
:101CC00003F11002104B1B680C330B4C2468648822
:101CD000A5B2094C24682488A4B20095019408F0A8
:101CE00033FE786806F040FA1837BD46B0BD00BF35
:101CF00048580020E4280020F8280020042900206B
:101D00000A29002000290020FC280020B0B586B058
:101D100002AF78605D4B1B7803F01003002B1CD0E2
:101D20005B4B1B68581C5B4B1B881A465A4B1B6845
:101D3000D1185A4B1B6803F11002584B1B680C3327
:101D4000574C24686488A5B2554C24682488A4B2F2
:101D50000095019408F0F8FD92E04C4B1B7803F0DD
:101D60000203002B00F08C807B685B7C1846FFF739
:101D700045FBF860FB68002B01D1FF2381E0474B56
:101D80001B681033002B03D0444B1B681B6900E019
:101D90000023FA6813607B681A8BFB681A833F4B39
:101DA0001B680C33002B03D03C4B1B68DB6800E046
:101DB0000023FA6853603A4B1B681B889AB2FB6891
:101DC0001A84FB6803221A74334B1B685A1CFB6885
:101DD0005A62FB685A6AFB68DA62314B1B68DB891E
:101DE0009AB2FB68A3F85C20FB68B3F85C20FB6840
:101DF000A3F85420284B1B685A1EFB681A667B68A0
:101E00005A69FB685A617B68DA69FB68DA617B684A
:101E10001A8940F2991313409AB2FB681A81214B38
:101E20001A68FB68DA601F4BFA681A60F86801F0FC
:101E300067F8FB681A8FFB68043310461946FFF7F2
:101E40005FFC03461A46FB681A87002300930123B0
:101E50000193F86800210022122308F063F803467A
:101E6000FB7297F90B30002B05D0F8680021FEF7C4
:101E700025FDFB7A05E0F86808F05CFB034600E00E
:101E800000235BB218461037BD46B0BD08290020BC
:101E9000042900200A29002000290020FC28002015
:101EA000F828002030580020B0B584B002AF786028
:101EB0002E4B1B7803F00403002B01D0002350E0CD
:101EC0002A4B1B7803F00203002B2DD0284B1A68F5
:101ED0007B685B6AD31A002B30DB254B1A687B6862
:101EE000596A7B681B8D0B44D31A002B26DC214BCF
:101EF0001868214B1B881A461D4B1B68D1181F4BB5
:101F00001B6803F110021D4B1B680C331C4C24682A
:101F10006488A5B21A4C24682488A4B20095019460
:101F200008F012FD00231CE0104B1B7803F00103A6
:101F3000002B03D0134B1A687B681A630E4B1B8867
:101F4000002B0DD07B6893F8223043F00203DAB205
:101F50007B6883F82220786808F0ECFA034600E0FA
:101F600000235BB218460837BD46B0BD08290020E3
:101F700000290020042900200A290020FC28002034
:101F8000F828002034580020B0B588B002AF78603F
:101F90000023FB750023BB75A34B1B7803F00403E0
:101FA000002B36D07B681B7C022B08D17B689A6D96
:101FB0009E4B1B689A4215D10123FB7512E09C4B86
:101FC0001A687B685B6AD31A002B0BDB984B1A6884
:101FD0007B68596A7B681B8D0B44D31A002B01DC8C
:101FE0000123FB75FB7D002B11D0924B1B7843F036
:101FF0000803DAB28F4B1A707B6893F8223023F013
:102000000103DAB27B6883F82220FA230AE3002373
:1020100008E3854B1B7803F00203002B15D07B6887
:102020001B7C022B11D07B681B7C032B0DD07B68A3
:1020300093F8223043F00203DAB27B6883F822205F
:10204000786808F077FA0023ECE27B4B1A687B682B
:102050001A637B68002283F89D20786800F050FFA7
:102060007B681B7C023B072B00F2DA8201A252F84C
:1020700023F000BF95200008492200087F230008B4
:10208000B3230008CD2400087F230008652500083D
:10209000F1250008644B1B7803F01003002B00F0BF
:1020A000A080614B1B7803F00203002B00F09980A5
:1020B0007B689B6F1B695B68184606F02DFA034628
:1020C0005A1C5A4B1B689A4240F08B807B68B3F8CD
:1020D0006E3001339AB27B68A3F86E20544B1B68B4
:1020E0005A1C7B685A627B685A6A7B68DA624F4B7B
:1020F0001A687B68DA64514B1B68DB899AB27B688B
:10210000A3F85C204A4B1B685A1E7B681A667B68E2
:1021100004221A747B681A8F7B68043310461946B0
:10212000FFF7EEFA03461A467B681A877B681B8F17
:102130001A46920013445B009AB27B68A3F85420BD
:102140007B68B3F85230012B04D17B681B8F5B0096
:102150009BB201E07B681B8F7A68A2F852307B68E3
:10216000B3F87030013B9AB27B68A3F870207B68AB
:102170009B6F3B613B691A687B689A677B689B6FC2
:10218000002B04D17B684FF6FF72DA8606E07B688D
:102190000022DA867B68002283F84A203869FFF73C
:1021A0006DF87B68D3F88830002B0BD07B68D3F8B0
:1021B00088307A6852691046796800229847034649
:1021C000BB7501E00023BB757B6893F8223043F0B8
:1021D0000203DAB27B6883F82220786808F0AAF953
:1021E00021E0114B1B7803F01003002B1BD00F4B89
:1021F0001868134B1B881A460D4B1B68D118114BDE
:102200001B6803F110020F4B1B680C330B4C246846
:102210006488A5B2094C24682488A4B2009501946E
:1022200008F092FBFDE1FCE10829002004290020D0
:10223000002900200C29002034580020F828002014
:102240000A290020FC280020964B1B7803F010037D
:10225000002B00F08280944B1A687B68DB6CD31AE9
:10226000013B002B5CDB904B1A687B689B6DD31A9B
:10227000002B55DC7B6804221A747B68DB69002B19
:102280000AD07B68DB697A68526910467968002257
:1022900098470346BB7501E00023BB7597F91630DC
:1022A000002B05D078680121FEF708FBFB23B9E17C
:1022B0007B68B3F85230FB81786800F0C5F97B6821
:1022C000B3F86C30002B07D07B68B3F86C30013B5F
:1022D0009AB27B68A3F86C20FB89012B04D17B6840
:1022E0001B8F5B009BB201E07B681B8F7A68A2F8B2
:1022F00052306E4B1B7803F02003002B0FD07B680D
:1023000093F8223043F00203DAB27B6883F822208C
:10231000786808F00FF97B6807221A741CE01BE04C
:10232000614B1868624B1B881A46624B1B68D118B8
:10233000614B1B6803F110025F4B1B680C335F4C51
:1023400024686488A5B25D4C24682488A4B20095F2
:10235000019408F0F9FA11E010E0524B1B7803F0F9
:102360000203002B0AD07B685B6A5A1E514B1B6824
:102370009A4203D1786808F08FFB52E151E1786806
:1023800000F062F9494B1B7803F02003002B0FD0BB
:102390007B6893F8223043F00203DAB27B6883F85B
:1023A0002220786808F0C6F87B6807221A7438E1A2
:1023B00037E1786800F048F93C4B1B7803F02003C4
:1023C000002B5DD0374B1B7803F01003002B47D058
:1023D0007B689A6D344B1B689A4241D17B6893F8B5
:1023E000223043F00203DAB27B6883F82220786857
:1023F00008F0A0F87868FFF7E9F8314B1A687B68B5
:102400009A4205D12E4B1B68DA682D4B1A6019E0F1
:102410002B4B1A682B4B1A6010E02A4B1B68DA68AA
:102420007B689A4205D1274B1B687A68D268DA60CC
:1024300008E0244B1B68DA68224B1A60214B1B68AA
:10244000002BEAD17B680022DA607B680A221A74CA
:102450001D4B1A687B68DA601B4B7A681A601FE0B4
:102460007B6893F8223043F00203DAB27B6883F88A
:102470002220786808F05EF87B6808221A740FE062
:10248000084B1B7803F01003002B09D07B689A6D72
:10249000054B1B689A4203D17B6806221A74C0E080
:1024A000BFE000BF08290020042900200C290020DB
:1024B0000A29002000290020FC280020F8280020FC
:1024C000305800203C58002044580020786800F024
:1024D000BBF8574B1B7803F02003002B41D07B68DF
:1024E00093F8223043F00203DAB27B6883F82220AB
:1024F000786808F01FF87868FFF768F84D4B1A689D
:102500007B689A4205D14B4B1B68DA68494B1A60CD
:1025100019E0484B1A68484B1A6010E0464B1B689C
:10252000DA687B689A4205D1434B1B687A68D268A7
:10253000DA6008E0404B1B68DA683F4B1A603E4B9C
:102540001B68002BEAD17B680022DA607B680A22D4
:102550001A743A4B1A687B68DA60384B7A681A60EA
:102560005FE05EE0786800F06FF8354B1B7803F0B1
:102570001003002B3BD07B689A6D324B1B689A424C
:1025800035D17868FFF722F82A4B1A687B689A429F
:1025900005D1284B1B68DA68264B1A6019E0254BD9
:1025A0001A68254B1A6010E0234B1B68DA687B68B9
:1025B0009A4205D1204B1B687A68D268DA6008E03D
:1025C0001D4B1B68DA681C4B1A601B4B1B68002BE9
:1025D000EAD17B680022DA607B680A221A74174B02
:1025E0001A687B68DA60154B7A681A6019E018E09F
:1025F000786800F029F8124B1B7803F01003002BC9
:102600000DD07B689A6D0F4B1B689A4207D1084B1F
:102610001B7843F01003DAB2054B1A7001E000E0BA
:1026200000BF00235BB218461837BD46B0BD00BFDF
:102630000C290020305800203C580020445800202D
:102640000829002004290020F0B58BB000AF786085
:102650000023BB61A54B1B7803F01003002B00F097
:1026600095827B68B3F85C301A467B685B6E1344D6
:102670007B617B681A6E9E4B1B68D31A002B1BDB99
:102680007B681A6E9A4B1B689A4206D17B685A6E19
:10269000984B1B68D31A002B0EDB7B685A6E954B48
:1026A0001B689A4225D1944B1B68DB899AB27B68E0
:1026B000B3F85C309A421CD98F4B1B68DB899AB205
:1026C0007B68A3F85C208A4B1A687B681A66894B82
:1026D0001A687B685A667B68B3F85C30002B08D0B8
:1026E0007B6893F89C30002B03D07B68002283F832
:1026F0009C20804B1A687B68DB6CD31A002B5BDC58
:102700007B680022A3F86C207C4B1B88002B4AD1ED
:102710007B685A6E7B68B3F85C301A447B699A42D6
:1027200041D17B68DB8E1BB2002B3CDB7B68DA6C13
:10273000704B1B689A4236D10123BB617B6893F8CA
:1027400050305A1C7B6893F850309A4207DD7B6802
:1027500093F850300133DAB27B6883F850207B68FD
:1027600093F85030032B16D97B68B3F852207B685E
:102770001B8F13449AB27B68B3F852309A4212D935
:102780007B68B3F852207B681B8F13449AB27B6836
:10279000A3F8522007E07B6893F85030032B02D156
:1027A000786808F0BBF9BB69002B40F025817B6895
:1027B000002283F850205FE14E4B1A687B68DB6C87
:1027C000D31A013B002BC0F212814A4B1A687B6876
:1027D0009B6DD31A002B00F30A817B6893F822309B
:1027E00003F00403002B0ED07B6893F8223023F013
:1027F0000403DAB27B6883F822207B68B3F85420A4
:102800007B68A3F852207B68002283F84A207B680B
:10281000B3F844301BB2DB109BB29AB27B68B3F8BA
:1028200046309BB213449BB29AB27B68A3F848200F
:10283000304B1B689AB27B68DB6C9BB2D31A9AB29E
:102840007B68A3F86C207B68B3F86E207B68B3F8D4
:102850006C3013449AB27B68A3F86E207B68002228
:1028600083F85020234B1A687B68DA647B681B7CF2
:10287000032B3AD97B68B3F852207B68B3F8543005
:102880009A4216D27B68B3F852207B681B8F1344A0
:102890009AB27B68B3F852309A4226D97B68B3F873
:1028A00052207B681B8F13449AB27B68A3F8522096
:1028B00065E07B68B3F852207B681B8F7968098FCD
:1028C00001FB03F17B68B3F8523091FBF3F39BB249
:1028D00013447B827B68B3F852307A8A9A4204D9D7
:1028E0007B687A8AA3F8522049E048E00829002052
:1028F0000029002004290020F82800200A290020AF
:102900007B689B6FFB607B689B6F1A687B689A672C
:10291000FB685B68184605F077FC7B68B3F86C30A1
:10292000002B13D0FB681B699B899BB2184605F0EE
:10293000CBFD034603F00103002B07D07B68B3F8FF
:102940006C30013B9AB27B68A3F86C207B68B3F8CB
:102950007040FB685B68184605F056FC0346E31AB6
:102960009AB27B68A3F87020F868FEF787FC7B6852
:10297000B3F87030002B02D07B689B6F002B7B6814
:102980009B6F002B22D07B689B6F1B695B6818468E
:1029900005F0C2FD04467B689B6F9B891D467B68E2
:1029A0009B6F1B699B899BB2184605F08DFD034602
:1029B00003F00303002B0CBF00230123DBB22B44E5
:1029C000E2189A4B1B68D31A002B99DD7B689B6F2A
:1029D000002B04D17B684FF6FF72DA8602E07B6839
:1029E0000022DA867B68002283F8342004E07B68CA
:1029F0000022A3F86C203FE03EE07B685B6FFB6049
:102A00007B685B6F1A687B685A67FB685B6818466F
:102A100005F0FAFB7B68B3F86C30002B13D0FB6831
:102A20001B699B899BB2184605F04EFD034603F0D7
:102A30000103002B07D07B68B3F86C30013B9AB2DE
:102A40007B68A3F86C207B68B3F87040FB685B6818
:102A5000184605F0D9FB0346E31A9AB27B68A3F83F
:102A60007020F868FEF70AFC7B68B3F87030002B22
:102A700002D07B689B6F002B7B685B6F002B29D09B
:102A80006A4B1C687B685B6F1B695B68184605F0C6
:102A900043FD05467B685B6F9B891E467B685B6FC9
:102AA0001B699B899BB2184605F00EFD034603F097
:102AB0000303002B0CBF00230123DBB233442B4460
:102AC000E31A002B06DB594B1A687B689B6DD31AFF
:102AD000002B92DD7B68DB6B002B57D07B681A6C78
:102AE000524B1B68D31A002B50DA514B1B689AB219
:102AF0007B68DB6B9BB2D31A9BB2FB83FA8B7B6840
:102B0000B3F844301BB2DB109BB29BB2D31A9BB21A
:102B1000FB837B68B3F844309AB2FB8B13449BB2BF
:102B20009AB27B68A3F84420B7F91E30002B03DA71
:102B3000FB8B5B429BB2FB83FA8B7B68B3F846301E
:102B40001BB29B109BB29BB2D31A9BB2FB837B68D8
:102B5000B3F846309AB2FB8B13449BB29AB27B68AF
:102B6000A3F846207B68B3F844301BB2DB109BB25D
:102B70009AB27B68B3F846309BB213449BB29AB2C8
:102B80007B68A3F848207B680022DA63294B1B8806
:102B9000002B00F091817B685A6A274B1B68D31A7F
:102BA000013B002B74DB7B685A6A224B1B88194659
:102BB000214B1B680B44D31A0133002B68DC7B6864
:102BC0005A6A1D4B1B68D31A3B621C4B5B687B62C5
:102BD0001A4B5B685B891A463B6A9A4230DA174B9C
:102BE0005B681A893B6A9BB2D31A7B810DE07B6AD2
:102BF0005B893A6AD31A3B627B6A7A891A817B6A5B
:102C000000225A817B6A1B687B627B6A5B891A4659
:102C10003B6A9A42EBDB3B6A9BB25B429BB29BB244
:102C20001BB2786A194605F02FFA15E00429002036
:102C3000345800200A29002000290020E428002020
:102C4000984B5A683B6A9BB25B429BB29BB21BB2E9
:102C50001046194605F018FA7B6A5A68914B9A603B
:102C6000904B9A89904B1B6899B27B685B6A9BB2C8
:102C7000CB1A9BB213449AB28A4B9A81894B1B6937
:102C80007A68516A884A1160874A12685A6012E06D
:102C9000854B1A687B685B6AD31A002B0BDA7B685A
:102CA00093F8223043F00203DAB27B6883F82220E3
:102CB000786807F03FFC7C4B1A687B685B6AD31A24
:102CC000002BC0F2E980784B1A687B68596A7B68F0
:102CD0001B8D0B44D31A0133002B00F3DD807B687E
:102CE0005A6A714B1B689A4240F0D2806D4B9C89A6
:102CF0006C4B1B699B899BB2184605F0E5FB0346AC
:102D000003F00303002B0CBF00230123DBB2234499
:102D10009AB2664B1A807B681A8D644B1B889A4264
:102D20005DD2604B1B699B899BB2184605F0CCFBBA
:102D3000034603F00103002B1ED05A4B1C69594B6C
:102D40001B699B899DB24FF6C07005F0A7FB034637
:102D50002B409DB2534B1B699B899BB2184605F0D3
:102D6000B3FB034603F03E039BB2184605F096FB07
:102D700003462B439BB2A3817B681A8D494B9A81F2
:102D8000484B1B699B899BB2184605F09DFB034687
:102D900003F00203002B05D0424B9B89013B9AB202
:102DA000404B9A813F4B5A683E4B9B8910461946CF
:102DB00005F006F93B4B9C893A4B1B699B899BB2FA
:102DC000184605F081FB034603F00303002B0CBFFC
:102DD00000230123DBB223449AB2344B1A80334BD5
:102DE0001B881A46304B1B681A447B685A627B6802
:102DF0001A8D2E4B1B88D31A9AB27B681A85786875
:102E0000FDF71EFF274B5B681B89002B06D0254B67
:102E10005A68274B1A60234B00225A60214B1B69CA
:102E20009B899BB2184605F04FFB034603F0010354
:102E3000002B06D01F4B1B7843F02003DAB21D4B4A
:102E40001A707B6893F8223003F00103002B15D031
:102E50007B6893F8223023F00103DAB27B6883F8B1
:102E600022207B6893F8223043F00203DAB27B68B9
:102E700083F82220786807F05DFB11E07B6893F807
:102E8000223043F00103DAB27B6883F8222007E0A6
:102E9000786807F01BFB03E0786807F017FB29E070
:102EA00028E000BFE4280020002900200A29002093
:102EB000102900200C290020104B1A687B685B6ADF
:102EC000D31A002B0ADB0D4B1A687B68596A7B68A2
:102ED0001B8D0B44D31A0133002B0BDD7B6893F859
:102EE000223043F00203DAB27B6883F8222078684C
:102EF00007F020FB2C37BD46F0BD00BF00290020A5
:102F000080B586B000AF78603C4B1B6814333B61E2
:102F10003A4B1B689B899BB2184605F0D5FA0346CD
:102F20001B0B9BB2052B66D9344B1B689B899BB24C
:102F3000184605F0C9FA03461B0B9BB2053B9BB232
:102F40009B00FB810023FB824FE0FB8A3A6913441C
:102F50001B787B737B7B012B04D0022B06D0002BCC
:102F600048D031E0FB8A0133FB823EE0FB8A01332B
:102F70003A6913441B78042B04D1FB8A1A1DFB8980
:102F80009A4200DD37E0FB8A02333A6913441B782A
:102F90001B029AB2FB8A033339690B441B78134333
:102FA0009BB27B817A8940F2B4539A4204D87B89E0
:102FB000002B01D07B8901E040F2B4537A6813877B
:102FC000FB8A0433FB8210E0FB8A01333A69134425
:102FD0001B78002B00D10EE0FB8A01333A691344C1
:102FE0001B781A46FB8A1344FB82FA8AFB899A42B1
:102FF000ABD300E000BF1837BD4680BDF8280020E5
:1030000080B483B000AF00237B8002E07B88013373
:103010007B807B88082BF9D91B4B033323F00303F8
:103020007B6000237B8026E07A88184B002143F8E0
:10303000221000233B8014E07A88144B53F822209E
:103040007B681A607A88114B796843F822107A8875
:103050000F4B33F812307A6813447B603B8801339E
:103060003B807A880B4B33F812303A889A42E3D38C
:103070007B8801337B807B88082BD5D90C37BD46F4
:103080005DF8047B704700BF382900201429002018
:1030900084C1000898C1000880B485B000AF034621
:1030A000FB71FB79082B01D900230EE0FA790A4B5A
:1030B00053F82230FB60FB68002B05D0FA79FB68DF
:1030C0001968054B43F82210FB6818461437BD46B3
:1030D0005DF8047B704700BF1429002080B485B0E0
:1030E00000AF03463960FB713B68002B00D10CE058
:1030F0003B68FB60FA79074B53F82220FB681A60A3
:10310000FA79044BF96843F822101437BD465DF88C
:10311000047B70471429002080B584B000AF78602C
:103120000123FB73FB7B002B10D07B685B6A1B7A4F
:10313000002B03D0786800F075F80AE0786800F09A
:103140004FF87B685B6A64221A7202E0786800F0CC
:1031500069F81037BD4680BD80B584B000AF786097
:1031600039607B6893F82F301A467B6893F83030CB
:103170001B021A43174B1344184605F0B3F90346D4
:10318000184605F0C9F9F8607B685B6A5B7AFA68F3
:103190001344FB60FB689BB243F0294343F47E0376
:1031A000FB60FA680C4B9A4203D8FB6803F57E4338
:1031B000FB60FA68094B9A4203D9FB68A3F57E438A
:1031C000FB60F86805F08EF902463B681A6010371C
:1031D000BD4680BD0001FEA9FF00FEA9FFFEFEA9BD
:1031E00080B586B004AF78607B6803F12B027B6802
:1031F0002B337968496A08467968496A009007481C
:10320000019002910121039178681146044A03F06C
:103210001DFA034618460837BD4680BD74C5000830
:103220006CC5000880B584B000AF78607B685B6ACD
:10323000FB600023FB72786805F0A2FA0346002BBE
:1032400002D0786805F082FA7B6800225A607B68B9
:1032500000229A607B680022DA60FB68002B11D1A3
:103260000A20FDF7BDF9F860FB68002B01D1FF23B0
:1032700029E0F86800210A2208F044FA7B68FA681D
:103280005A6211E0FB6800221A71FB680022DA80A2
:10329000FB6800225A71FB6818460021042208F0DE
:1032A00031FAFB6800221A72FB6878681946FFF74A
:1032B00053FFFB685B7A0133DAB2FB685A727868B5
:1032C00000F006F8FB7A5BB218461037BD4680BDA9
:1032D00080B485B000AF78607B685B6AFB60FB6898
:1032E00001221A71FB6800225A717B6893F8303012
:1032F0001A067B6893F82E301B041A437B6893F8F8
:103300002D301B021A437B6893F82F301A437B68D9
:103310005B6A002B03D07B685B6A5B7A00E000236A
:10332000D1180C4BA3FB0123DA0813469B0013446E
:103330005B00CA1A92B2FB68DA80FB685B7A0A2BE0
:1033400003D9FB684FF41672DA801437BD465DF876
:10335000047B7047CDCCCCCC80B586B000AF786014
:1033600039607B685B6A002B69D07B685B6A1B797C
:10337000002B64D07B6893F82B303B727B6893F80A
:103380002C307B727B6893F82D30BB727B6893F88E
:103390002E30FB727B6893F82F303B737B6893F879
:1033A00030307B733A6807F114030E3210681860EE
:1033B0003A6807F110031832106818607B685B6A7E
:1033C0001B79012B09D07B685B6A1B79022B21D109
:1033D0007B685B6A5B79002B1CD17A697B685B6ACE
:1033E0001B689A4211D03A697B685B6A1B689A42F3
:1033F0000FD13B68083307F1080210461946062230
:1034000008F0B2F80346002B03D07868FFF70AFFF4
:1034100015E014E07A697B685B6A1B689A420ED1FA
:103420003B68083307F1080210461946062208F0E7
:103430009BF80346002B02D07868FFF76DFE183723
:10344000BD4680BD80B586B000AF7860396000238E
:103450007B613B68002B7B685B685B68FB60FB689B
:103460009B889BB2002B1DD17B685B683B61FB682E
:103470001A687B685A603B695A687B680833104653
:103480001946142208F0A4F83869012106F052F90F
:10349000386904F0B9FE03467A6913447B613869E0
:1034A00004F062FE7B685B683B6111E03B695B682E
:1034B000FB603B69BB60FB681B683B61B86804F05C
:1034C000A3FE03467A6913447B61B86804F04CFE9E
:1034D0003B69002BEAD17868396800F0A5F8064B03
:1034E0001A887B699BB2D31A9AB2034B1A807B6904
:1034F00018461837BD4680BD504D002080B588B0B5
:1035000000AF7860396000233B610023BB6100237A
:103510007B610023FB60264B1B68FB612CE0FB6991
:103520005A697B68DB689A420CD1FB699A697B68AF
:103530001B699A4206D1FB699A897B689B889BB27A
:103540009A4210D0FB680133FB60BB69002B02D1AB
:10355000FB69BB6107E0FB69DA7FBB69DB7F9A42ED
:1035600001D8FB69BB61FB691B68002B01D0FB69BB
:103570007B61FB691B68FB61FB69002BCFD1BB69D9
:10358000002B08D0B8697969FFF75CFFB8603A6929
:10359000BB6813443B613A693B689A4202DAFB68B4
:1035A000012BB2DC3B6918462037BD4680BD00BF09
:1035B0004C4D002080B584B000AF786039600520A4
:1035C000FFF76AFDF860FB68002B10D17868396856
:1035D000FFF794FF02463B689A4203DB0520FFF7A2
:1035E0005BFDF860FB68002B01D1002316E0F86852
:1035F0000021202208F086F8FB680322DA77094BC5
:103600001A68FB681A60074BFA681A60FB6808338F
:1036100018467968142207F0DBFFFB68184610375C
:10362000BD4680BD4C4D002080B582B000AF7860B3
:1036300039600A4B1A687B689A4204D17B681A6821
:10364000064B1A6003E07B681A683B681A60052025
:103650007968FFF743FD0837BD4680BD4C4D00201B
:1036600090B58BB000AF7860396000233B620123D6
:10367000BB613B685B687B617B695B889BB218467A
:1036800004F022FF03461C467B691B889BB2184648
:1036900004F01AFF03461B0A9BB203F00F039BB210
:1036A0001A469203D31A9B009BB223447B827B6908
:1036B000DB889BB2184604F007FF0346C3F30C03F4
:1036C0009BB2DB003B823B685B687B627B6A0022CB
:1036D0001A7000225A7000229A700022DA707B6AF7
:1036E0003A8A9A803A8A7B8A13449AB27B6ADA8051
:1036F0007B685B68FB614EE0FB695B68FB607B6A33
:103700009B889AB2FB689B889BB29A421FD27B6AC5
:10371000FA691A603B6A002B15D07B6A9B889AB2C3
:103720003B6ADB889BB29A42C0F08B807B6ADB8865
:103730009AB2FB689B889BB29A4200F282803B6AF5
:103740003A681A602AE07B683A685A6026E07B6A29
:103750009B889AB2FB689B889BB29A4200D170E02A
:103760007B6A9B889AB2FB68DB889BB29A4200D244
:1037700067E03B6A002B09D03B6ADB889AB2FB68A2
:103780009B889BB29A4201D00023BB61FB681B68F7
:10379000FB61FB683B62FB69002BADD1FB69002B31
:1037A00017D13B6A002B11D03B6ADB887B6A9B8870
:1037B0003B6A3A681A603B6ADB889AB27B6A9B88EC
:1037C0009BB29A4205D00023BB6102E07B683A6855
:1037D0005A607B689B7F03F00103002B2FD0BB69ED
:1037E000002B2AD07B685B685B689B889BB2002BB0
:1037F00002D00023BB6120E07B6A3B627B6A1B68CE
:10380000FB6112E0FB695B687B623B6ADB889AB212
:103810007B6A9B889BB29A4202D00023BB6107E07F
:103820007B6A3B627B6A1B68FB61FB69002BE9D109
:10383000BB69002B01D07B6ADB88BB690FE00023EA
:103840000DE0094B1C88386804F0DEFC0346E31ADF
:103850009AB2054B1A80386804F086FC002318469B
:103860002C37BD4690BD00BF504D002090B58BB0A9
:1038700000AF78600023FB617B685B68BB61BB695C
:103880001B889BB2184604F01FFE03461B0A9BB21E
:1038900003F00F039B00142B00D00CE1BB69DB8805
:1038A0009BB2184604F010FE0346C3F30C039BB210
:1038B000DB00FB82BB695B889BB2184604F004FE08
:1038C00003461C46BB691B889BB2184604F0FCFDEE
:1038D00003461B0A9BB203F00F039BB21A469203E6
:1038E000D31A9B009BB22344BB82786804F08CFC03
:1038F0000346FB74744B1B881A46FB7C13440A2B4B
:1039000010DDFB7CB8691946FFF7F8FD0346002B74
:1039100000F0D1806C4B1B881A46FB7C13440A2BA9
:1039200000F3C980694B1B683B6218E03B6A5A6927
:10393000BB69DB689A420DD13B6A9A69BB691B6916
:103940009A4207D13B6A9A89BB699B889BB29A428B
:1039500000D107E03B6AFB613B6A1B683B623B6A44
:10396000002BE3D13B6A002B09D1FB7CB8691946D7
:10397000FFF720FE38623B6A002B1CD19BE0BB693D
:10398000DB889BB2184604F09FFD0346C3F30C038B
:10399000002B10D13B6ADB89184604F095FD0346E5
:1039A000C3F30C03002B06D03B6A08331846B969F1
:1039B000142207F00DFEFB7C9AB2434B1B88134484
:1039C0009AB2414B1A80BB69DB889BB2184604F05F
:1039D0007BFD034603F40053002B0CD13B6A9B7F15
:1039E00043F00103DAB23B6A9A77FA8ABB8A13443E
:1039F0009AB23B6A9A83386A7968FFF731FE0346C8
:103A0000002B56D03B6A9B8B14339AB23B6A9A8345
:103A10003B6A5B685B681B687B623B6A5B685B68F0
:103A2000BB613B6A0833B8691946142207F0D0FD20
:103A30003B6A9B8B184604F031FD03461A46BB696E
:103A40005A80BB6900229A710022DA71BB69002298
:103A50009A720022DA72B869142101F09FF90346C4
:103A60001A46BB695A813B6A5B687B600EE07B6AE1
:103A70005B68FB60786A6FF0130104F005FB7868FF
:103A8000796A04F0EBFBFB681B687B627B6A002BA6
:103A9000EDD1386AF969FFF7C7FD0B4B1C887868D0
:103AA00004F0B2FB0346E31A9AB2074B1A807B6814
:103AB00005E0002303E0786804F056FB0023184675
:103AC0002C37BD4690BD00BF504D00204C4D00200E
:103AD00080B58CB000AFF860B9607A60BB681B8DB0
:103AE000FB8414237B8502200021022204F06CF960
:103AF00038623B6A002B01D1FF23B4E03B6AFA8CA9
:103B00005A813B6A5A893B6A1A81594B033323F025
:103B100003031A463B6A5A603B6A5B68FB61FB68B9
:103B20005B68F8691946142207F052FDFB69DB88CF
:103B30009BB2184604F0C8FC03463B853B8DC3F39B
:103B40000C03BB853B8D03F400537B83FB681B890F
:103B5000143BFB85FB8C143B002B00DA0733DB1096
:103B60003B8379E0FA8DFB8C143B9A42CCBF002357
:103B70000123DBB2FB82BB8DC3F30C039AB27B8BB8
:103B800013433B85FB8A002B03D13B8D43F4005349
:103B90003B85FB8A002B03D13B8BDB009BB200E013
:103BA000FB8DBB82FB6903F11401BA8A7B8DF86837
:103BB00004F012FC03461A467B8D13447B853B8D33
:103BC000184604F06BFC03461A46FB69DA80BB8A90
:103BD00014339BB2184604F061FC03461A46FB6995
:103BE0005A80FB6900229A720022DA72F869142165
:103BF00001F0D4F803461A46FB695A81FB8A002B70
:103C000006D0FB8D14339BB2386A194604F0D8F9FC
:103C100002200021002204F0D7F838613B69002B14
:103C200015D03869396A04F047FBBB685B69B8682E
:103C300039697A689847386904F096FAFA8DBB8A30
:103C4000D31AFB85BA8D3B8B1344BB8504E0386ADD
:103C500004F08AFAFF2306E0FB8D002B82D1386A3C
:103C600004F082FA00235BB218463037BD4680BDAF
:103C7000544D002080B483B000AF00237B601FE070
:103C800014497A6813465B001344DB000B4410337D
:103C90001B79002B11D10F497A6813465B0013443E
:103CA000DB000B44103301221A717A6813465B0063
:103CB0001344DB00074A134406E07B6801337B6052
:103CC0007B68092BDCDD002318460C37BD465DF808
:103CD000047B70474C58002080B485B000AF7860FA
:103CE0000023FB6017E0FA6813465B001344DB0017
:103CF0000D4A1A447B689A420AD10B49FA68134666
:103D00005B001344DB000B44103300221A7105E002
:103D1000FB680133FB60FB68092BE4DD00BF14374F
:103D2000BD465DF8047B70474C58002080B584B0D8
:103D300000AF7860FFF79EFFB860BB68002B01D131
:103D400000232AE0174BFB6020E0FB685B68786883
:103D5000194607F09BFD0346002B14D1FB689A68B7
:103D6000BB681A60FB68DA68BB685A60FB68DA688F
:103D7000BB689A60BB680022DA60FB681A7CBB688B
:103D80001A74BB6809E0FB681B68FB60FB68002BCA
:103D9000DBD1B868FFF7A0FF002318461037BD46F7
:103DA00080BD00BF50C5000880B582B000AF78600C
:103DB0007868FFF791FF0837BD4680BD80B586B0B3
:103DC00000AFF860B9607A60FB689A68FB685B686E
:103DD0009A4202D14FF0FF331DE0FB685A68FB683E
:103DE0009B68D31A7B617A697B689A4201DD7B68A4
:103DF0007B61FB681A68FB689B681A447B69B8683A
:103E000011461A4607F0E4FBFB689A687B691A447E
:103E1000FB689A607B6918461837BD4680BD00BFB5
:103E200080B483B000AF78607B685A687B689B6819
:103E3000D31A18460C37BD465DF8047B704700BFA7
:103E400080B582B000AF104B7B60104B3B6007E049
:103E50003B681A1D3A607A68111D796012681A6011
:103E60003A680B4B9A42F3D30A480B494FF00002D1
:103E70008842B8BF40F8042BFFF6FAAF00F0ECFF21
:103E80000837BD4680BD00BFA8C60008000000205E
:103E9000B8000020B8000020287E002080B400AFC9
:103EA000FEE700BF80B584B000AF0023FB7342E0A3
:103EB000FA7B244913469B0013449B000B440833B0
:103EC0005B681846012101F089F8FA7B1D49134609
:103ED0009B0013449B000B4408331B887B60012329
:103EE0003B720023BB720123FB7202237B72FA7BBD
:103EF000144913469B0013449B000B445A683B1D16
:103F00001046194604F050FCFA7B0E4913469B00FC
:103F100013449B000B4410331B78002B04D1FB7B14
:103F2000184600F011F803E0FB7B184600F02AF871
:103F3000FB7B0133FB73FB7B032BB9D91037BD46E9
:103F400080BD00BF3400002080B483B000AF0346C2
:103F5000FB71FA790A4913469B0013449B000B44FA
:103F60005968FA79064813469B0013449B000344A2
:103F700008331B884B830C37BD465DF8047B7047C4
:103F80003400002080B483B000AF0346FB71FA799F
:103F90000A4913469B0013449B000B445968FA7965
:103FA000064813469B0013449B00034408331B88B8
:103FB0000B830C37BD465DF8047B7047340000204E
:103FC00080B485B000AF78600023FB607B68FB6045
:103FD00002E0FB68013BFB60FB68002BF9D1143762
:103FE000BD465DF8047B704780B500AF4FF00070B0
:103FF000012101F02FF84FF00070002101F02AF8A4
:1040000080BD00BF80B483B000AF78607B680122C0
:104010001A607B6800225A607B6800229A607B6885
:104020000022DA607B6800221A617B684FF48042CC
:104030005A617B6800229A617B680022DA617B68A2
:104040004FF400621A627B6800225A627B68002289
:104050009A627B680022DA627B6800221A637B68BE
:1040600000225A637B6800229A637B680022DA632D
:104070007B6840221A647B6820225A647B68002295
:104080009A647B680022DA647B6800221A657B6888
:1040900000225A657B6800229A657B680022DA65F7
:1040A0007B6800221A667B6880225A667B68002241
:1040B0009A667B680022DA667B6800221A677B6852
:1040C00000225A677B6800229A677B680022DA67C1
:1040D0007B684FF08062C3F880207B684FF00072ED
:1040E000C3F884207B680022C3F888207B684FF4E3
:1040F0000012C3F88C207B680022C3F890207B68F4
:104100000022C3F894207B680022C3F898207B68C3
:104110000022C3F89C207B680022C3F8A0207B68A3
:104120004FF00072C3F8A4207B684FF48032C3F8CC
:10413000A8207B684FF48002C3F8AC207B684FF462
:104140000052C3F8B0207B680022C3F8B4207B681B
:104150000022C3F8B8200C37BD465DF8047B7047D9
:1041600080B58AB000AF78600B467B8000233B624D
:1041700000237B62684BFB610023BB60674B1B69BC
:104180007B627B6A23F01C037B6207F10C031846F9
:1041900000F07AFE3B69FB61FA69614B9A4208D9EB
:1041A000FA69604B9A4204D87B6A43F008037B6249
:1041B00026E0FA695B4B9A4208D9FA695A4B9A424F
:1041C00004D87B6A43F00C037B6219E0FA69564B12
:1041D0009A4204D9FA69554B9A4200D810E0FA691C
:1041E000524B9A4208D9FA69514B9A4204D87B6AD9
:1041F00043F004037B6203E07B6A43F010037B62BD
:10420000464B7A6A1A617B88184600214FF40042B7
:1042100000F0E8FC0346002B01D100236EE1454885
:10422000FFF7CEFE7B681B68002B5FD0BB680133B5
:10423000BB607B881846012100F086FC034603F032
:104240000403002B03D1BA683B4B9A42EED9BA68FB
:104250003A4B9A4201D1002350E10023BB607B8896
:10426000184600214FF4805200F0BCFC0346002B9E
:1042700001D1002342E1BB680133BB607B88184653
:10428000012100F061FC034603F02003002B03D161
:10429000BA68294B9A42EED9BA68284B9A4201D1A2
:1042A00000232BE10023BB607B881846102100F01F
:1042B0004BFC03463B623B6A03F00403002B04D033
:1042C0007B684FF400621A6202E07B6800221A6287
:1042D0003B6A03F00203002B03D07B6800225A6183
:1042E00032E07B684FF480425A612DE07B681B6AA4
:1042F000DB089AB27B685B695B089BB213439BB295
:104300007A88104600211A4600F06CFC0346002B08
:1043100016D10023F2E000BF008793030080024023
:10432000FF2C3101BF0E1602FF869303FFE0F50557
:104330007FD1F008FFFF0F00FEFF0400FFFF040025
:104340006FF07F40FFF73CFE6E4B1B687B627A6A22
:104350006D4B13407B627B685A687B689B681A438D
:104360007B68DB681A437B681B691A437B685B695F
:104370001A437B689B691A437B68DB691A437B6835
:104380001B6A1A437B685B6A1A437B689B6A1A4301
:104390007B68DB6A1A437B681B6B1A437B685B6B29
:1043A00013437A6A13437B62564B7A6A1A60554B01
:1043B0007A68916B7A68D26B11437A68126C1143F8
:1043C0007A68526C11437A68926C11437A68D26CA5
:1043D00011437A68126D11437A68526D0A435A602C
:1043E000484B7A68926D9A60464B7A68D26DDA6073
:1043F000444B9B697B627A6A4FF6417313407B6240
:104400007B681B6E1A047B685B6E1A437B689B6E2D
:104410001A437B68DB6E1A437B681B6F1A437B6809
:104420005B6F13437A6A13437B62364B7A6A9A61F5
:10443000344B7A68916F7A68D26F0A43DA61314BF4
:1044400003F5805318331B687B627A6A2F4B134045
:104450007B627B68D3F880207B68D3F884301A4372
:104460007B68D3F888301A437B68D3F88C301A43C2
:104470007B68D3F890301A437B68D3F894301A43A2
:104480007B68D3F898301A437B68D3F89C301A4382
:104490007B68D3F8A03013437A6A13437B62194BCD
:1044A00003F5805318337A6A1A60164B7A68D2F88B
:1044B000A4107A68D2F8A82011437A68D2F8AC2008
:1044C00011437A68D2F8B02011437A68D2F8B42048
:1044D000920011437A68D2F8B8200A4342F40002ED
:1044E00003F580531A60074B064A02F580521268A2
:1044F00042F0800203F580531A60012318462837E2
:10450000BD4680BD008002400F8120FF233FDEF8C2
:1045100080B500AF012000F00DF800F0B1FA0120E5
:1045200000F024F8012000F0BFFA012000F0E4FAC6
:1045300080BD00BF80B483B000AF0346FB71FB7940
:10454000002B06D0084B084A126842F008021A6095
:1045500005E0054B044A126822F008021A600C3785
:10456000BD465DF8047B70470080024080B483B094
:1045700000AF0346FB71FB79002B06D0084B084ABD
:10458000126842F004021A6005E0054B044A126802
:1045900022F004021A600C37BD465DF8047B7047B8
:1045A0000080024080B485B000AF786039603B681D
:1045B00005331B781A023B6804331B781343FB60F6
:1045C0007A68104B1344FA681A603B6803331B780F
:1045D0001A063B6802331B781B041A433B680133FD
:1045E0001B781B021A433B681B781343FB607A68F5
:1045F000054B1344FA681A601437BD465DF8047B16
:10460000704700BF408002404480024080B487B0C1
:1046100000AF786000237B610023BB600023FB6058
:1046200000233B61164B1B681A68164B13401B0C8A
:10463000043B7B617B69BB60134B1B689B68012B50
:1046400005D9114B1B681B689B68FB6003E00C4B92
:104650001B689B68FB600A4B1B683B61084B1B682F
:10466000DB681A46064B1A607B6807F1080207CA26
:1046700083E8070078681C37BD465DF8047B704707
:10468000485900200000FF3F6471002080B487B0CB
:1046900000AF0346FB8000237B610023BB60002347
:1046A0003B61514B1B681B68002B01DA002395E02E
:1046B0004D4B1B68FB60FA8840F2F4539A4217D9BD
:1046C000FA884A4BA3FB02139B0A9BB27B61FB88CF
:1046D000464AA2FB0312920A40F2F45101FB02F295
:1046E0009B1A9BB2002B05D07B6901337B6101E0F3
:1046F00001237B617B69012B1CD13B4B1B683A4A30
:104700001268126842F040521A60374B1B68FA88F0
:10471000C2F30C025A60344B1B68334A12681268A9
:1047200042F000421A60304B1B68DB681A462E4B81
:104730001A603DE000233B6133E03B69002B07D169
:10474000294B1B68284A1268126842F080521A608E
:10475000FB6840F2F4525A607B695A1E3B699A42E8
:1047600013D1FB681B6843F00052FB681A60FA889B
:104770007B691F4901FB03F3134403F2F453BB604D
:10478000BB68C3F30C02FB685A60FB681B6843F00C
:104790000042FB681A60FB68DB68FB603B69013321
:1047A0003B613A697B699A42C7D30F4BFA681A603A
:1047B000104B03F5805314331B6803F00403002BE4
:1047C0000BD00C4B03F58053143304221A60094BB1
:1047D00003F58053043300221A60012318461C3766
:1047E000BD465DF8047B70474C5900200BB002AC0D
:1047F0000CFAFFFF0080024080B487B000AFF86081
:10480000B9607A6000237B61214BFA681A6000234B
:104810007B612AE07B695B01FA6813443B613B6979
:104820004FF000421A603B6944F2F4525A607B69CF
:1048300040F2F45202FB03F3BA6813441A463B6990
:104840009A607B685A1E7B699A4208D97B6901335A
:104850005B01FA6813441A463B69DA6002E0FA68C1
:104860003B69DA607B6901337B617A697B689A42D4
:10487000D0D3084BFA6803F580530C331A60064B0B
:10488000064A1A601C37BD465DF8047B704700BFBE
:104890004859002000800240647100203C590020EB
:1048A00080B400AF314B1B681B68002B12DB2F4B11
:1048B0001B681B6803F48073002B0BD02C4B1B6808
:1048C0002A4A12685A602A4B1B689A6801329A6019
:1048D000012345E0254B1B681B68002B21DB234B84
:1048E0001B681B6803F40073002B1AD01F4B1B6856
:1048F0001B6803F48073002B13D11D4B1B681B4AEC
:1049000012681A601A4B1B6800225A60184B1B6809
:1049100001229A60154B1B68DB681A46134B1A601C
:104920001DE0124B1B681B68002B18DB0F4B1B682C
:104930001B6803F40073002B11D10C4B1B681B6820
:1049400003F48073002B0AD1094B1B689A6801326B
:104950009A60064B1B68DB681A46044B1A600023FA
:104960001846BD465DF8047B704700BF48590020DB
:104970006471002080B487B000AFF860B9607A60DD
:1049800000237B611D4BFA681A6000237B6126E0DF
:104990007B695B01FA6813443B613B694FF4801209
:1049A0001A607B6940F2F45202FB03F3BA681344C5
:1049B0001A463B699A607B685A1E7B699A4208D9FD
:1049C0007B6901335B01FA6813441A463B69DA607C
:1049D00002E0FA683B69DA607B6901337B617A69DE
:1049E0007B689A42D4D3064BFA6803F580531033A0
:1049F0001A601C37BD465DF8047B70474C59002097
:104A00000080024080B483B000AF786039607B687A
:104A10001A683B681A437B681A600C37BD465DF81C
:104A2000047B704780B400AF064B064A02F5805203
:104A3000126842F0010203F580531A60BD465DF82A
:104A4000047B70470080024080B483B000AF002335
:104A5000FB710A4B03F580531B6803F00103002B25
:104A600002D00123FB7101E00023FB71FB791846A2
:104A70000C37BD465DF8047B704700BF00800240E4
:104A800080B400AF0749074B03F5805318331B6808
:104A900043F4801201F5805318331A60BD465DF867
:104AA000047B70470080024080B483B000AF0346AF
:104AB000FB71FB79002B0CD00E490E4B03F5805394
:104AC00018331B6843F4005201F5805318331A6001
:104AD0000BE00849074B03F5805318331B6823F498
:104AE000005201F5805318331A600C37BD465DF84B
:104AF000047B70470080024080B483B000AF03465F
:104B0000FB71FB79002B0CD00E490E4B03F5805343
:104B100018331B6843F0020201F5805318331A6002
:104B20000BE00849074B03F5805318331B6823F04B
:104B3000020201F5805318331A600C37BD465DF848
:104B4000047B70470080024080B485B000AF02460D
:104B50000B46FA80BB800023FB600023BB601E4B2A
:104B60001B69FB60FB6803F01C03FB60FB88DB0236
:104B70009BB2FA681343FB60BB889B0103F4F863A4
:104B8000FA681343FB60FB6823F00203FB60FB68D9
:104B900043F00103FB60104BFA681A61BB680133F4
:104BA000BB600D4B1B69FB60FB6803F00103002B2E
:104BB00003D0BA68094B9A42F0D9BA68084B9A42B6
:104BC00001D1002302E0044B5B699BB21846143705
:104BD000BD465DF8047B704700800240FEFF040084
:104BE000FFFF040080B485B000AF13460246FA8090
:104BF0000A46BA807B800023FB600023BB601F4B0A
:104C00001B69FB60FB6803F01C03FB60FB88DB0295
:104C10009BB2FA681343FB60BB889B0103F4F86303
:104C2000FA681343FB60FB6843F00203FB60FB6818
:104C300043F00103FB60114B7A885A610F4BFA680D
:104C40001A61BB680133BB600C4B1B69FB60FB68DE
:104C500003F00103002B03D0BA68094B9A42F0D944
:104C6000BA68084B9A4201D1002300E0012318469C
:104C70001437BD465DF8047B704700BF00800240DA
:104C8000FEFF0400FFFF040080B485B000AF786031
:104C900039607B681B68FB60FB68B3F1FF3F02D0A3
:104CA000FB68002B01D1012326E03B6893F83130EB
:104CB00003F00203002B01D100231DE03B685A687A
:104CC000FB689A4201D1002316E07B681A683B68B2
:104CD0005B685A403B689B681340002B0BD13B68D4
:104CE0009B68DA43FB681A403B689B68DB439A4247
:104CF00001D1012300E0002318461437BD465DF8BA
:104D0000047B704780B586B000AF78600B467B802F
:104D100000237B617B683B6116E03B691B781B02CB
:104D2000FB813B6901333B613B691B781A46FB8978
:104D30001343FB813B6901333B61FB897A6913446F
:104D40007B617B88023B7B807B88012BE5D87B885D
:104D5000002B07D03B691B781B02FB81FB897A691A
:104D600013447B617B691A0C7B699BB213447B61A2
:104D70007B691B0C1B04002B05D07B691A0C7B691B
:104D80009BB213447B617B699BB2184603F086FBA0
:104D9000034618461837BD4680BD00BF80B582B0B7
:104DA00000AF78600B467B807B8878681946FFF7F8
:104DB000A9FF0346DB439BB218460837BD4680BDBA
:104DC00080B586B000AF786000237B610023FB7361
:104DD0007B683B6128E03B695A683B695B89104608
:104DE0001946FFF78FFF03467A6913447B617B699D
:104DF0001A0C7B699BB213447B613B695B8903F0AE
:104E000001039BB2002B0CD0FB7BC3F10103FB73AE
:104E10007B691B029AB27B6903F47F431B0A13432D
:104E20007B613B691B683B613B69002BD3D1FB7BFA
:104E3000002B08D07B691B029AB27B6903F47F4385
:104E40001B0A13437B617B699BB2DB439BB2184611
:104E50001837BD4680BD00BF80B582B000AF03F0FB
:104E600077FDFFF71FF8FBF7DBF90346FB71FB79D2
:104E7000002B03D10020FFF785F802E00220FFF7A6
:104E800081F8FBF7EBF9FCE780B489B000AF7860FC
:104E90000023BB6100237B610023FB6102233B6194
:104EA0000023FB600223BB60484B9B6803F00C03AC
:104EB000BB61BB69042B07D0082B09D0002B3FD165
:104EC0007B68434A1A603FE07B68424A1A603BE0D5
:104ED0003E4B5B6803F480039B0DFB603B4B5B68C0
:104EE00003F03F03BB60FB68002B0DD0394ABB6861
:104EF000B2FBF3F2354B596847F6C0730B409B0980
:104F000003FB02F3FB610CE0314ABB68B2FBF3F236
:104F10002E4B596847F6C0730B409B0903FB02F305
:104F2000FB612A4B5B6803F440331B0C01335B00CD
:104F30003B61FA693B69B2FBF3F27B681A6003E0FC
:104F40007B68234A1A6000BF204B9B6803F0F00384
:104F5000BB61BB691B09BB611F4ABB6913441B785A
:104F6000DBB27B617B681A687B69DA407B685A60D8
:104F7000164B9B6803F4E053BB61BB699B0ABB61A2
:104F8000154ABB6913441B78DBB27B617B685A68A6
:104F90007B69DA407B689A600C4B9B6803F4604342
:104FA000BB61BB695B0BBB610B4ABB6913441B78DC
:104FB000DBB27B617B685A687B69DA407B68DA60C8
:104FC0002437BD465DF8047B704700BF00380240BF
:104FD0000024F40000127A008400002080B483B022
:104FE00000AF78600B46FB70FB78002B06D0094BB6
:104FF000084A116B7A680A431A6306E0054B054AB2
:10500000116B7A68D2430A401A630C37BD465DF8CB
:10501000047B70470038024080B483B000AF7860F2
:105020000B46FB70FB78002B06D0094B084A516CED
:105030007A680A435A6406E0054B054A516C7A685F
:10504000D2430A405A640C37BD465DF8047B704772
:105050000038024080B483B000AF78600B46FB702C
:10506000FB78002B06D0094B084A11697A680A437D
:105070001A6106E0054B054A11697A68D2430A4075
:105080001A610C37BD465DF8047B7047003802405A
:1050900080B588B004AFFBF771F9FDF7B1FF134895
:1050A00003F020FA0346FB606FF0FF0003F01AFAEA
:1050B0000346BB600E4803F015FA03467B6007F118
:1050C0000C0107F108023B1D0020009009480190E7
:1050D00009480290094803F02BFA084803F004FB42
:1050E000064803F00FFB1037BD4680BD0A00A8C07C
:1050F0000100A8C0D15A0008D1670008D07D002067
:1051000080B500AF014800F0BFFC80BDD07D00201D
:1051100080B582B000AF78607A680D4B1B68D31AF7
:10512000F92B04D97A680A4B1A60FBF7FFFA7A6800
:10513000084B1B68D21A41F287339A4204D97A6825
:10514000044B1A6000F0FEFC0837BD4680BD00BF6E
:10515000345300203853002080B485B000AF78600D
:1051600039600023FB600023FB727B685B68FB6097
:10517000FB6823F0407323F48073FB603B681B796A
:105180001A023B681B681343FA681343FB607B6891
:10519000FA685A607B689B68FB60FA68174B13409B
:1051A000FB603B681A693B68DB681A433B689B6895
:1051B0001A433B685B795B001343FA681343FB6057
:1051C0007B68FA689A607B68DB6AFB60FB6823F4A3
:1051D0007003FB603B681B7D013BDAB2FB7A134333
:1051E000FB72FB7A1B05FA681343FB607B68FA6865
:1051F000DA621437BD465DF8047B7047FDF7FFC0E7
:1052000080B483B000AF78607B6800221A607B684E
:1052100000221A717B6800225A717B6800229A6012
:105220007B680022DA607B6800221A617B680122B9
:105230001A750C37BD465DF8047B704780B485B0A5
:1052400000AF78600023FB600E4B5B68FB60FA6880
:105250000D4B1340FB607B681A687B685B681A43E0
:105260007B689B681A437B68DB681343FA681343C7
:10527000FB60044BFA685A601437BD465DF8047B46
:10528000704700BF00230140E030FCFF80B483B0D2
:1052900000AF78600B46FB70FB78002B06D07B6874
:1052A0009B6843F001027B689A6005E07B689B681D
:1052B00023F001027B689A600C37BD465DF8047BE1
:1052C000704700BF80B485B000AF7860F970BA70E5
:1052D0007B700023FB600023BB60FB78092B23D984
:1052E0007B68DB68FB60FB78A3F10A0213465B0076
:1052F0001344072202FA03F3BB60BB68DB43FA687E
:105300001340FB607978FB78A3F10A0213465B0037
:10531000134401FA03F3BB60FA68BB681343FB60F4
:105320007B68FA68DA601EE07B681B69FB60FA78CC
:1053300013465B001344072202FA03F3BB60BB6809
:10534000DB43FA681340FB607978FA7813465B0018
:10535000134401FA03F3BB60FA68BB681343FB60B4
:105360007B68FA681A61BB78062B21D87B685B6B77
:10537000FB60BB785A1E13469B0013441F2202FA9F
:1053800003F3BB60BB68DB43FA681340FB60F9784A
:10539000BB785A1E13469B00134401FA03F3BB600B
:1053A000FA68BB681343FB607B68FA685A6347E09E
:1053B000BB780C2B21D87B681B6BFB60BB78DA1F9A
:1053C00013469B0013441F2202FA03F3BB60BB6821
:1053D000DB43FA681340FB60F978BB78DA1F1346A9
:1053E0009B00134401FA03F3BB60FA68BB681343E4
:1053F000FB607B68FA681A6322E07B68DB6AFB600B
:10540000BB78A3F10D0213469B0013441F2202FA3E
:1054100003F3BB60BB68DB43FA681340FB60F978B9
:10542000BB78A3F10D0213469B00134401FA03F36A
:10543000BB60FA68BB681343FB607B68FA68DA629A
:105440001437BD465DF8047B704700BF80B483B05D
:1054500000AF78607B689B6843F080427B689A600D
:105460000C37BD465DF8047B704700BF80B483B045
:1054700000AF78607B68DB6C9BB218460C37BD468A
:105480005DF8047B704700BF80B483B000AF034673
:105490003960FB7197F90730002B0BDA0D49FB7966
:1054A00003F00F03043B3A68D2B21201D2B20B44AC
:1054B0001A7609E0084997F907303A68D2B2120122
:1054C000D2B20B4483F800230C37BD465DF8047B51
:1054D000704700BF00ED00E000E100E080B582B061
:1054E00000AF78607B68B3F1807F01D3012311E0C6
:1054F0000A4B7A6822F07F42013A5A604FF0FF303F
:105500000F21FFF7C1FF054B00229A60034B0722D2
:105510001A60002318460837BD4680BD10E000E041
:1055200080B584B000AF00F0A9F800F025F8104B6A
:105530001B68002B01D1012316E0012000F00AF9BD
:105540000346012B01D002230EE000F03FF93B4659
:105550001846FFF799FC7A68064BA3FB02135B0918
:105560001846FFF7BBFF002318461037BD4680BD25
:10557000405300201F85EB5180B5B2B000AF00232F
:10558000C7F8C430002387F8C3304FF060600121B2
:10559000FFF724FDFEF728FDFFF744FA14E0FFF7BC
:1055A00053FA0346012B02D0012387F8C330D7F802
:1055B000C4300133C7F8C430D7F8C4202D4B9A4209
:1055C00002D9022387F8C33097F8C330002BE6D006
:1055D00097F8C330022B49D03B1D1846FEF712FD49
:1055E00001237B6000233B624FF40073FB620023C6
:1055F0003B630023FB630023BB6400233B65002364
:105600007B650023BB654FF48063BB620023C7F852
:1056100084304FF00073C7F888304FF40013C7F898
:1056200090300023C7F898300023C7F89C3004233B
:10563000C7F8A4304FF00073C7F8A8304FF4803398
:10564000C7F8AC304FF48003C7F8B0304FF40053C4
:10565000C7F8B4304FF48043C7F8BC303B1D184640
:105660000121FEF77DFD0246034B1A60C837BD4697
:1056700080BD00BF20A107004053002080B582B04C
:1056800000AF07200121FFF7A9FC4FF48040012162
:10569000FFF7C2FC4FF480733B6003237B7102234E
:1056A0003B710023BB710023FB713B462648194622
:1056B00003F07AF80120FAF7A5FD86233B603B460C
:1056C0002148194603F070F81F4801210B2203F00E
:1056D000F9F81D4802210B2203F0F4F81A480721BB
:1056E0000B2203F0EFF84FF460533B603B46174842
:1056F000194603F059F815480B210B2203F0E2F884
:1057000012480C210B2203F0DDF810480D210B226A
:1057100003F0D8F832233B603B460D48194603F0AE
:1057200043F80B4801210B2203F0CCF80848042170
:105730000B2203F0C7F8064805210B2203F0C2F83C
:105740000837BD4680BD00BF000002400004024093
:105750000008024080B584B000AF0346FB80002300
:10576000FB60FB8818461121FFF7EEF90346FB604A
:10577000FB6843F00303FB60FB689BB2FA881046AA
:1057800011211A46FFF72EFA0346002B01D1002300
:1057900018E0FB8818461221FFF7D6F90346FB6094
:1057A000FB6843F02003FB60FB689BB2FA8810465D
:1057B00012211A46FFF716FA0346002B01D10023E7
:1057C00000E0012318461037BD4680BD80B586B085
:1057D00000AF02200121FFF701FC4FF480400121BE
:1057E000FFF71AFC00233B750023FB754FF4804341
:1057F0003B6107F110031448194602F0D5FF012060
:105800000E21FAF7C1FC4FF48043BB6000233B73C9
:105810000C237B730123BB7307F10803184603F0C5
:10582000D9FD4FF4A06003F0E9FF28233B7100236A
:105830007B710023BB710123FB713B1D184603F0F4
:10584000EFFF1837BD4680BD0004024080B582B02E
:1058500000AF0346FB80FB8818461221FFF774F95E
:10586000034603F40053002B06D0054B1B78DBB234
:10587000DB43DAB2024B1A700837BD4680BD00BF69
:105880004453002080B584B000AF78607B68062266
:1058900083F82A207B68022283F82B207B68002271
:1058A00083F82C207B68002283F82D207B6800225F
:1058B00083F82E207B68002283F82F207B6800224B
:1058C00083F830207B682B3300201946FEF76AFEF0
:1058D0007B6840F2DC521A857B68322283F83120E3
:1058E000104811490222FFF745F8104810490422D8
:1058F000FEF782FF0023FB600BE0FB685A01094BB7
:10590000134418464FF44001FFF77CF8FB6801335D
:10591000FB60FB68012BF0DDFEF7FAFD1037BD469A
:1059200080BD00BF50590020E87100206871002040
:105930009059002080B586B000AF786039600023B0
:105940003B61144B1B689B68FB603B687B6113E009
:105950003B69FA68D1187B695A687B695B8908469C
:1059600011461A4605F034FE7B695B893A69134497
:105970003B617B691B687B617B69002BE8D13B69DC
:105980009BB21846FEF782FE00235BB2184618371A
:10599000BD4680BD4C59002080B58CB000AF78600A
:1059A0000023BB6200237B620023FB6107F1080335
:1059B0001846FEF72BFEBB687B83FB687B617B8B05
:1059C00003201946032202F0FFF9F861FB69002B5E
:1059D00019D0FB69FB6213E0FB6A5968BB6A7A69FC
:1059E0001A44FB6A5B89084611461A4605F0F0FD29
:1059F000FB6A5B89BA6A1344BB62FB6A1B68FB6281
:105A0000FB6A002BE8D11E4B1B689B68012B04D955
:105A10001B4B1B681B683B6201E03B693B62002338
:105A20007B6209E03B6A4FF000421A603B6ADB6828
:105A30003B627B6A01337B62114B1B689A687B6A0D
:105A40009A42EFD80E4B1B6800229A600D4B03F56B
:105A5000805314331B6803F08003002B0BD0094BD9
:105A600003F58053143380221A60064B03F58053EC
:105A7000083300221A60FB6918463037BD4680BDE6
:105A8000647100200080024080B584B000AF78606F
:105A90007868FFF781FFF860FB68002B01D1FF23D6
:105AA00010E07B681B69F868796898470346FB72C9
:105AB00097F90B30002B04D0F86802F055FB002357
:105AC000FB60FB7A5BB218461037BD4680BD00BF55
:105AD00080B582B000AF78607B68732283F8322093
